:100000000C942A040C9447040C9447040C94470461
:100010000C9447040C9447040C9447040C94470434
:100020000C9447040C9447040C9447040C94470424
:100030000C9447040C9447040C9447040C94470414
:100040000C9447040C9447040C9447040C94470404
:100050000C944704FF0101010101010101030101A9
:10006000010101010101010301010101010101017E
:10007000010301010101010101010103010101016C
:100080000101010101AB01010101010101010103B4
:10009000010101010101010101030101010101014E
:1000A000010101030101010101010101010301013C
:1000B0000101010101010101FF0000000000E05009
:1000C0004850E000F8000000F800F848C848300048
:1000D00000000000FF000000000000000008000019
:1000E0000000000000000008000000000000000008
:1000F00000080000000000000000000800000000F0
:100100000000000008AA080000000000000000082D
:1001100000000000000000000008000000000000D7
:1001200000000008000000000000000000080000BF
:100130000000000000000008FF0000C02020230095
:10014000C020232000C12221C000E32020C102E002
:1001500020202000FF000000000000000020000020
:10016000000000000000002000000000000000006F
:10017000002000000000000000000020000000003F
:100180000000000020AA2000000000000000002065
:10019000000000000000000000200000000000003F
:1001A000000000200000000000000000002000000F
:1001B0000000000000000020FF00004849494640C0
:1001C000474848484047484847404F414140404FD2
:1001D00049490900FF8000800080008000C0008045
:1001E00000800080008000C00080008000800080CF
:1001F00000C0008000800080008000C0008000807F
:100200000080008080EA808000800080008000C044
:10021000008000800080008000C00080008000809E
:10022000008000C0008000800080008000C000804E
:100230000080008000800080FF000098A4A09884C7
:10024000A49800003048403008483000000000000A
:1002500000000000FF00000000000000000100009E
:10026000000000000000000100000000000000008D
:10027000000100000000000000000001000000007C
:100280000000000000AB00000000000000000001C2
:10029000000000000000000000010000000000005D
:1002A000000000010000000000000000000100004C
:1002B0000000000000000000FF00005C525252529B
:1002C000525C0000A1A1A1A1A1A1BD0000E02040BD
:1002D00080000000FF00000000000000000200009D
:1002E000000000000000000200000000000000000C
:1002F00000020000000000000000000200000000FA
:100300000000000002AA020000000000000000023D
:1003100000000000000000000002000000000000DB
:1003200000000002000000000000000000020000C9
:100330000000000000000002FF0000C62928E6219E
:10034000292600008C52108C42528C000019A4A463
:10035000A4A5A519FF00000000000000000800008F
:100360000000000000000008000000000000000085
:10037000000800000000000000000008000000006D
:100380000000000008AA08000000000000000008AB
:100390000000000000000000000800000000000055
:1003A000000000080000000000000000000800003D
:1003B0000000000000000008FF000038A5253925D6
:1003C000A5250000314A4A79484A4900006394143F
:1003D000244484F3FF8080808080808080A080809F
:1003E00080808080808080A08080808080808080ED
:1003F00080A0808080808080808080A080808080BD
:1004000080808080A0AAA08080808080808080A062
:10041000808080808080808080A0808080808080BC
:10042000808080A0808080808080808080A080808C
:100430008080808080808080FF00006394846714C7
:100440009463000011111111110A0400003C425A7A
:10045000525A423CFF01010101E1212121212121C8
:10046000212121212121212121212121212121217C
:1004700021212121212121212121E101010101014C
:10048000010101010101010101010101010101015C
:1004900001010101010101010101C1E1311919311C
:1004A000E1C10101F9F901010101F9F90101F9F9CC
:1004B00019191939F1E101010101010101010101DC
:1004C000010101010101010101010101010101011C
:1004D000010101FFFF00000000FF0000001100000B
:1004E0000011000000110000000055000000110084
:1004F00000001100000011000000FF0000000000DB
:1005000000000000000000000000000000000000EB
:10051000000000000000000000007F7F0C0C0C0CAD
:100520007F7F00000F1F306060301F0F00007F7F53
:100530000606060F7B7100000000000000000000AE
:1005400000000000000000000000000000000000AB
:10055000000000FFFF00000000FF00080049000845
:10056000004900080049000800085D08000841082B
:1005700000084108000841080008FF0000000000D2
:1005800000000000FCFE02FEFC009CBE22EECC003F
:10059000FCFE020E0C000002FEFE0200FEFE000049
:1005A0000000FEFE00000000FCFE02FEFC009CBEFF
:1005B00022EECC00FCFE020E0C00FCFE02FEFC0053
:1005C000FEFE223E1C00FEFE222222000000000051
:1005D000000000FFFF00000000FF000000440000DA
:1005E00000440000004400000000550000004400EA
:1005F00000004400000044000000FF000000000074
:100600000000000001030203C120010302038180F6
:100610008103020321C0000203030200030302421C
:10062000222023C302C22220A1C302C32120A1C3CE
:1006300002232120A16302030100010302E3212020
:1006400023C30080000083030202020000000000B8
:10065000000000FFFF00000000030202020282828D
:100660008202028282828282028283828202020269
:1006700082828202020282828202030080808000E3
:1006800000808080800000008788800000078888C4
:100690008805000008070000008000000080000CB2
:1006A0008A89890800078A89880700078A89880754
:1006B00000008E818000008000000000000F89890A
:1006C00089060013948C87000000000000000000E1
:1006D000000000FFFF0000000000000000132424C1
:1006E0002419003F24242420003F04040C33003F3D
:1006F0000808083F0013242424190000203F20008C
:10070000003F2020201F0000203F20000013242451
:100710002419000000000000000F1020100F003FFF
:100720000808083F00132424241900132424241942
:100730000000203F2000003F202020200000203F1C
:1007400020000013242424190000000000000000F1
:10075000000000FFFF00000000000000000000009B
:1007600000000000000000000000000000FC242445
:100770002404000000F400000010E010102000F03D
:10078000106010E000F080C080F00080505050E019
:100790000010E010102000E0505050200000B0B0D9
:1007A0000000000000000000000008FC0000000045
:1007B0008080000000F8442414F8000000000000CD
:1007C0000000000000000000000000000000000029
:1007D000000000FFFF80808080808080808080809B
:1007E0008080808080808080808080808081808008
:1007F00080808080808181808081818180808081F3
:1008000080808081808081808180808081818181E1
:1008100080818181808080808181818080808181D0
:1008200080808080808080808080818181808080C5
:1008300081818080808081818180808080808080B3
:1008400080808080808080808080808080808080A8
:10085000808080FF11241FBECFE5D8E0DEBFCDBF72
:1008600010E0A0E6B0E0E2E8FDE002C005900D92E5
:10087000A436B107D9F714E0A4E6B0E001C01D9298
:10088000AF3FB107E1F70E9473050C94C0060C94CA
:1008900000001092690010926800AFEFB0E084E5AC
:1008A00094E0FC010196E491ED9328E084359207F1
:1008B000C1F780E094E0909367008093660008950C
:1008C0001092690010926800AFEFB0E084E590E00C
:1008D000FC010196E491ED9324E084359207C1F781
:1008E00080E094E090936700809366000895EFE7BE
:1008F000F0E0E80FF11D60830895209166003091CB
:10090000670040E050E025C0943618F024EE33E054
:100910001EC0E92FF0E0E158FF4F8081E4EEF3E0E4
:1009200002C08850F9019F01205830408830C8F734
:100930009F01291B310990E802C0969581508823B8
:10094000E1F7F901E150FF4F8081982B90834F5FD1
:100950005F4F942F40385105B9F6309367002093CC
:1009600066000895C59AC4980895C49AC5980895D4
:10097000C29A80E1982F9A95F1F7C2988A95F1F77B
:100980000895CF93DF93CDB7DEB721970FB6F894D4
:10099000DEBF0FBECDBF11BAC19AC0980E94B80485
:1009A00080B38983898187FDF9CF8FEF81BBC1989F
:1009B000C09A21960FB6F894DEBF0FBECDBFDF916F
:1009C000CF910895C59AC49AC098C198885482BBA3
:1009D0000E94B80480E482BB0E94B804C09A0895C3
:1009E000109267001092660040C0809165008830C8
:1009F00011F41092650080916400803879F41092AF
:100A00006400809165008F5F80936500883011F4E9
:100A100010926500809165000E94E204809164005C
:100A2000803410F4C59AC498803411F4C49AC598DF
:100A300080E18A95F1F7C09AC198E0916600F09143
:100A40006700E150FF4F808182BB0E94B804809113
:100A500064008F5F809364008091660090916700CE
:100A60000196909367008093660080916600909154
:100A700067008050944008F4B8CF08951F9310BACF
:100A80008FEF81BB18BA87BBC39AC59AC49AC09826
:100A9000C19810EE812F8A95F1F780EC82BB0E94FD
:100AA000B804812F8A95F1F780E482BB0E94B804D4
:100AB000812F8A95F1F788EB82BB0E94B8041A95C2
:100AC000F1F78FE382BB0E94B804C598C4980E94D6
:100AD00060040E94F0041F91089580E687B984ECB9
:100AE00086B908950895CF92DF92FF920F931F93D6
:100AF000CF93DF9314BA8FEF85BB1ABA0E943E05DD
:100B000080E687B984EC86B90E9449040E94F0040B
:100B100082EEC82E80E0D82E80917700882309F0DD
:100B200047C0999916C0809160009091610023E0C0
:100B3000893E920770F4009719F484E390E002C0B4
:100B40008F569F4F909361008093600081E0809367
:100B500077009C9918C08091600090916100843367
:100B6000910588F08239910528F410926100109265
:100B7000600006C0815990409093610080936000AE
:100B800081E080937700989907C080917D008D3334
:100B90001CF48F5F80937D009B9907C080917D003E
:100BA000843C1CF0815080937D009A9906C0FDCF53
:100BB00083B38F3F11F41092770010926F00109260
:100BC0006E0010927600109278008FEF8093630091
:100BD00000917D00F601FF241FEF0B5F369A349BD6
:100BE000FECF84B145B1242F30E08F2D90E08217E5
:100BF000930708F4F42E812F90E02817390708F4A2
:100C0000142F442319F4C2E0D0E008C0C9010596AE
:100C100065E070E00E949906EB012296802F8C0F10
:100C2000803410F4808301C01082319760E0EF3788
:100C3000F607A1F6F09278001093630080937E008F
:100C4000F11659F08F2D90E0811B910962E070E060
:100C50000E94AD06160F109362000E9460040E946D
:100C60007D040E94F00410926F0010926E0080913B
:100C70006200482F50E0E09178007091630060912D
:100C80007A0020E030E0FC2F369A349BFECF84B10E
:100C900085B1C82FD0E08F2F90E08C179D0751F4BD
:100CA0002F5F3F4F61E0243F360710F460E004C03F
:100CB00061E00BC0662339F4C417D50721F78C1700
:100CC0009D0758F1E0CF6130F1F68C179D07D9F6FA
:100CD000E71719F120E030E0369A349BFECF84B15B
:100CE00085B190E04817590730F42F5F3F4F83E0FC
:100CF000283E380789F720E030E0369A349BFECF53
:100D000084B185B1C82FD0E02F5F3F4FC417D507FE
:100D100020F493E0283E390781F780E060937A0061
:100D200030936F0020936E0080937B00F0937900E6
:100D3000F3CEAA1BBB1B51E107C0AA1FBB1FA617FE
:100D4000B70710F0A61BB70B881F991F5A95A9F774
:100D500080959095BC01CD01089597FB092E07263B
:100D60000AD077FD04D0E5DF06D000201AF4709594
:100D700061957F4F0895F6F7909581959F4F08955F
:020D8000FFCFA3
:040D8200340002FF38
:00000001FF
