:100000000C94BB000C94D8000C94D8000C94D8002D
:100010000C942D010C94D8000C94C2020C94D800BE
:100020000C94D8000C94D8000C94D8000C94D800F0
:100030000C94D8000C94D8000C94D8000C94D800E0
:100040000C94D8000C94D8000C94D8000C94D800D0
:100050000C94D800000000000103070F000000000E
:100060001F1F1F1F0000000010181C1E1F1F1F1F36
:100070001E1C181010181C1E1F1F1F1F0F07030126
:10008000000000001F1F1F1F000000001E1C181092
:1000900000000000000102FF20FFFF20FF0506070F
:1000A00000012020FF2020FF20060606000102009C
:1000B0000103FF20200606060001022000032005A0
:1000C00004050607012020FF01FF2020FF20200655
:1000D000010101FF01022020FF060607000102FFC7
:1000E0000102FF20FF05060701010120000320FF98
:1000F00020200620000102FF01FFFF20FF05060768
:10010000000102FF01FF2020FF0506079400A00068
:10011000AC00B800C400D000DC00E800F40000012E
:10012000476F2120476F2120474F21004765726D9F
:10013000616E79004B6169736572736C617574658A
:10014000726E006279204D2E54686F6D6173004CA1
:10015000434420436C6F636B0033326B485A204337
:1001600072797374616C005254432073796E63200A
:1001700077697468000011241FBECFE5D4E0DEBFAC
:10018000CDBF10E0A0E6B0E0ECE9F8E002C00590D9
:100190000D92A036B107D9F710E0A0E6B0E001C09B
:1001A0001D92A936B107E1F70E9492030C944D0409
:1001B0000C9400009C01EAEFF0E003C0CF0101972E
:1001C000F1F7215030408FEF2F3F3807B9F70895EE
:1001D0001F931FB7F89488EE93E00E94DA0089B766
:1001E0008F7389BF88E082BD14BC85B5856085BDED
:1001F00082B522B542B5992784709070332722705A
:100200003070822B932B552741705070842B952B87
:10021000892B71F788B7806C88BF89B7806489BFE4
:1002200010926400109268001092670081E0809341
:100230006600809365001FBF1F9108959FB7F894D3
:1002400080936400609368004093670081E080932E
:100250006600809365009FBF08951F920F920FB6AE
:100260000F9211248F939F9391E090936600809159
:1002700067008F5F80936700809167008C33D1F4B3
:1002800010926700809168008F5F80936800909360
:100290006500809168008C3368F01092680080914E
:1002A00064008F5F8093640080916400883110F057
:1002B000109264009F918F910F900FBE0F901F902E
:1002C0001895DB9A00C0DB980895CF93DF936623DF
:1002D00011F0D99A01C0D998DA98D49AD59AD69AB9
:1002E000D79ADF98DE98DD98DC9887FDDF9AC82FD3
:1002F000DD27C6FDDE9AC5FDDD9AC4FDDC9A0E94AD
:100300006101DF98DE98DD98DC98C3FDDF9AC2FDBD
:10031000DE9AC1FDDD9AC0FDDC9A0E946101DC9A83
:10032000DD9ADE9ADF9ADF91CF910895882311F04C
:10033000D99A01C0D998DA9AD498D598D698D798EE
:10034000DB9A00C0CC9B02C080E101C080E0CD9967
:100350008062CE998064CF998068DB9800C0DB9A78
:1003600000C0CC998160CD998260CE998460CF998C
:100370008860DB989927089580E00E94960187FDA8
:10038000FBCF00C080E00E949601992708951F933B
:10039000182F0E94BC0160E0812F0E9465011F910F
:1003A00008951F93182F0E94BC0161E0812F0E94C5
:1003B00065011F910895662311F4805809C06130CA
:1003C00011F4805405C0623011F4805701C080538D
:1003D0000E94C70108950E94BC019927089581E0F9
:1003E0000E94C701089582E00E94C70108951F93EB
:1003F000182F0E94BC01982F1A3099F4803110F404
:1004000080E40BC08054803110F480E106C090512C
:10041000903310F480E501C080E080580E94C7014D
:1004200004C061E0812F0E9465011F910895CF9360
:10043000DF93EC0102C00E94F70189918823D9F76C
:10044000DF91CF910895CF93DF93EC0102C00E941A
:10045000F701FE01219684918823C9F7DF91CF919E
:100460000895FF920F931F93F82ED19AD29AD39AA0
:10047000D49AD59AD69AD79A80EA9FE00197F1F755
:10048000DD9ADC9A0E94610180EE94E00197F1F719
:100490000E94610100E110E0C8010197F1F70E949C
:1004A0006101C8010197F1F7DC980E946101C80160
:1004B0000197F1F788E20E94C70188E00E94C70116
:1004C0000E94EF0186E00E94C7018F2D0E94C701A4
:1004D0001F910F91FF900895CF92DF92EF92FF92BC
:1004E0000F931F93CF93DF93E62EE82FFF27EE0F96
:1004F000FF1FE45FFE4FC590D490FF24C0E0D0E022
:100500006C2F8E2D0E94DB011F2D00E0F601E10F04
:10051000F11DE4918E2F0E94F7011F5F0F5F0330E2
:10052000A9F783E0F80E21968CE0F81649F7DF91E1
:10053000CF911F910F91FF90EF90DF90CF90089592
:10054000CF93DF9380E40E94C701C4E5D0E0FE01B1
:1005500084910E94F7012196F0E0C439DF07B9F7D2
:10056000DF91CF91089590E00AC020E030E00000D4
:100570002F5F3F4F47E0203D3407C9F79F5F981733
:10058000A1F708951F920F920FB60F9211248F9327
:10059000B0990AC080916200803F40F4809162006F
:1005A0008F5F8093620002C010926200B1990AC00E
:1005B00080916100803F40F4809161008F5F809363
:1005C000610002C010926100809160008F5F809393
:1005D00060008F910F900FBE0F901F90189587B3FA
:1005E0008C7F87BB88B3836088BB2FB7F89484E087
:1005F00090E09BBD8ABD8DE08EBD89B7806189BFCB
:100600001DBC1CBC2FBF089580916100843660F42E
:1006100080916200843640F4809160009091630084
:10062000891B823308F44BC02FB78091610086305C
:1006300010F490E018C0F894809168008F5F809368
:100640006800809168008C3369F410926800809192
:1006500064008F5F8093640080916400883110F0A3
:100660001092640091E0809162008630D0F0F8949E
:1006700080916800882379F48BE3809368008091EF
:100680006400882311F487E103C0809164008150E5
:100690008093640008C08091680081508093680056
:1006A00002C0992359F01092670081E080936600A0
:1006B0008093650080916000809363002FBF089550
:1006C0001F93182F61E08FE00E94DB01812F6AE009
:1006D0000E944104805D0E94F70162E08FE00E9469
:1006E000DB01812F6AE00E944104892F805D0E9416
:1006F000F7011F9108951F93182F61E087E00E9472
:10070000DB0110FD02C01FE601C010E2812F0E9434
:10071000F70162E087E00E94DB01812F0E94F70170
:100720001F9108951F9384B7806884BF84B7806841
:1007300084BF8CE00E9431020E94A0020E94EF025E
:1007400061E082E00E94DB0187E691E00E942302E3
:1007500062E082E00E94DB0189E591E00E942302D1
:100760000E94E8000E94EF0160E084E00E94DB014B
:100770008FE491E00E94230261E083E00E94DB01AC
:1007800083E491E00E94230262E081E00E94DB01A9
:1007900084E391E00E94230263E085E00E94DB0194
:1007A0008CE291E00E9423028FEF0E94B3020E942C
:1007B000EF0180E00E947B031AE0115060E0812F7E
:1007C0000E946C0264E0812F0E946C0268E0812F1D
:1007D0000E946C026CE0812F0E946C028EE10E94EC
:1007E000B302112351F70E94EF0161E083E00E9400
:1007F000DB0180E291E00E94230284E60E94B302C2
:1008000078940E94EF014BE366E38BE00E941E01A7
:1008100080916600882351F01092660080916700F5
:100820000E947B03809167000E94600380916500B5
:10083000882321F110926500809164006AE00E9493
:10084000410460E00E946C02809164006AE00E94B2
:10085000410464E0892F0E946C02809168006AE084
:100860000E94410468E00E946C02809168006AE086
:100870000E9441046CE0892F0E946C020E940403D4
:10088000C7CF991B79E004C0991F961708F0961BF3
:0C089000881F7A95C9F780950895FFCF66
:00000001FF
