:10000000830100308A00042883010A128A11212FFB
:1000100083120313A200A31B1628231B1E282308E8
:100020008A002208A20A0319A30A82008313231854
:0C00300083172208A20A840000080800C0
:100E42000A128A119E270A128A110A128A1104288A
:100E520083120313091001300A128A113F270A1262
:100E62008A11080083120313A00009102008803E93
:100E72000A128A113F270A128A11080083120313E9
:100E8200A000200E0F39F0000608F0397004860029
:100E92000915091120080F39F0000608F03970040D
:100EA2008600091509110D30A100582F582FA10BEA
:100EB2005B2F5C2F572F080083120313A000091425
:100EC200200E0F39F0000608F0397004860009156B
:100ED200091120080F39F0000608F0397004860065
:100EE200091509110D30A100772F772FA10B7A2F49
:100EF2007B2F762F0800831203130914902F2108E9
:100F0200A3002008A00A0319A10A0A128A110820C4
:100F12000A128A110A128A113F270A128A1121081B
:100F2200A30020080A128A1108200A128A11003826
:100F3200031D9C2F9D2F802F08008312031309107D
:100F4200891009112130A000A72FA72FA00BAA2FCB
:100F5200AB2FA62F38308700091509110D30A000DC
:100F6200B32FB32FA00BB62FB72FB22F08308700A5
:100F7200091509110D30A000BF2FBF2FA00BC22FE2
:100F8200C32FBE2F01308700091509110D30A000B3
:100F9200CB2FCB2FA00BCE2FCF2FCA2F0E308700F7
:100FA200091509110D30A000D72FD72FA00BDA2F6A
:100FB200DB2FD62F06308700091509110D30A0004E
:100FC200E32FE32FA00BE62FE72FE22F423087001B
:100FD200091509110D30A000EF2FEF2FA00BF22FF2
:100FE200F32FEE2F43308700091509110D30A000B1
:0E0FF200FB2FFB2FA00BFE2FFF2FFA2F080066
:00000001FF
