:10007A000000000000000000000000000000000076
:02008A000895D7
:10008C0005D2902FB898AA278827883060F424D1FD
:10009C00EEDF06B30170482FD1D1A02B0027BFD1C2
:1000AC00E6DF8395F2CF092FC0D1E1DF15D1DFDF79
:1000BC000027B5D1DCDF01E0B8D1D9DF0A2FE3E0AE
:0200CC00F6C17B
:1000CE000CEF07BB08BB0FEF04BB002705BB01BB42
:1000DE0002B30FEF02BB00270FBD0EBD0DBD0CBD51
:0C00EE0002BF03BF09B7026809BF0895F4
:1000FA00E9DF7894882799270027003830F445D01B
:10010A00EE5DFA4F00830395F8CF01E00023E1F199
:10011A00002705BB882799279430B8F742E255E0B3
:10012A00082F192F36D1082F85BB42EA55E0192F1F
:10013A0061D00027003870F428D0EE5DFA4F1081A4
:10014A0024D0EE55FA4F2081121711F01FEF15BB7C
:10015A000395F0CF00271CD0EFD0002311F00AEA54
:10016A0005BB0FEF15D0E8D0002311F405E505BB58
:10017A000027003838F4112708D0EE55FA4F1083BB
:10018A000395F7CF0196C8CF0895E02FFF2708956A
:10019A007ED1A02FC29829D04FEF002765D04FEF0C
:1001AA00002762D04FEF02E05FD09FEF88278430AC
:1001BA0028F444270A2F58D08395F9CF85D00027F1
:1001CA00009321050FEF0DBD00E70CBD05E00EBD44
:1001DA00992339F000912105002319F406D0902FB4
:1001EA00F7CF72D0C29AE3E063C162D04FEF06EA5A
:0401FA003BD0089559
:1001FE0049D1A02FB12F842F952FC29837DF1B2FF7
:10020E000B2F0695402E0A2F16950795502EA79563
:10021E00AA27A7954BD04FEF06EA24D04FEF042D17
:10022E0021D04FEF052D1ED04FEF0A2F1BD03ED001
:10023E004FEF07EA17D0AA27AF3748F400271FDF82
:10024E00EA2FFF27E80FF91F0083A395F5CF01E0F2
:10025E0016DF81589F4FE82FF92F008333D0C29AB3
:04026E00E6E021C1E4
:1002720012D1A02F842F9927983090F488230A2F27
:1002820021F00078D7D0AA0F03C00170D3D0A69571
:10029200F3DE27D0F1DE0027C7D0EEDE9395ECCF58
:1002A20001E0C8D0E9DE1DD086B381700027BCD042
:0802B200E3DE082FE3E000C1C8
:1002BA0001E0BCD0DDDE11D0DBDE0027B7D0D8DE0E
:0802CA000027AED0D5DE089537
:1002D2000027B0D0D1DE05D0CFDE01E0ABD0CCDE3E
:0202E20008957D
:1002E40001E0A1D000270093200502BF01E003BF75
:1002F400B19904C0009120050023D1F3002703BF66
:06030400009120050895A0
:10030A000A93EA93FA93FFB7FA930FEF0093200543
:0C031A00F991FFBFF991E9910991189544
:02000E007DC1B2
:100326000A93EA93FA93FFB7FA930FEF0093210526
:0C033600F991FFBFF991E9910991189528
:02000C008CC1A5
:10034200A9D0C29899DEB8DF4FEF06EA91DF4FEFEE
:1003520000278EDF4FEF00278BDF4FEF02E088DFB1
:10036200ABDF4FEF07EA84DF00278FDEB02F0027D5
:100372008CDEA02F002789DE902F01E086DE802F01
:10038200A7DFC29ABA1731F4A91721F4981711F40A
:0A0392000B2F01C00AEAE4E08EC060
:10039C007AD0A02FB12F842F952FC29868DE1B2FF7
:1003AC000B2F0695402E0A2F16950795502EA795C4
:1003BC00AA27A7952FD04FEF042D55DF4FEF052D12
:1003CC0052DF4FEF0A2F4FDFBFEFAA27A03848F4B8
:1003DC004427EA2FFF27E80FF91F008144DFA3957C
:1003EC00F5CF71DF0027009321050FEF0DBD00E75E
:1003FC000CBD05E00EBDBB2339F000912105002397
:10040C0019F408D0B02FF7CF00270EBD5CDFC29ACD
:0E041C00E6E04AC04CDF4FEF06EA25DF089508
:0C042A00002311F0B9980895B99A0895C4
:0C043600002311F0B8980895B89A0895BA
:020000000DC031
:10001C0000EC05BFC0E2D5E000E203500DBF01E0EB
:10002C0000400EBF09D2002309F41FD0E0E6F0E037
:10003C0000E010E016D2EAE7F0E000E610E040E065
:10004C0050E001D2E0E2F5E002E011E00AD2EAE78A
:10005C00F0E000E215E040E050E0F5D1EAE7F0E036
:0E006C0002E216E040E050E0EED141D0E4C1E7
:02044200FFCFEA
:0404440001E0089536
:0A0448004A9512F0000FE1F7089545
:10045200BF93AF93A02FB12F03C0C89531960D92D1
:0C04620041505040D0F7AF91BF91089579
:0E046E00002401C0019201501040E0F70895F3
:02047C0000007E
:10047E00FA92EA92DA92CA92BA92AA929A928A92CE
:10048E007A926A925A924A92BA93AA939A938A93BA
:02049E000895BF
:1004A000FF84EE84DD84CC84BB84AA849984888410
:1004B0007F806E805D804C80BB81AA81998188811C
:0E04C000F0E00FB6F894CE0FDF1F0FBE0895C8
:00000001FF
