:020000020000FC
:0200000099C0A5
:1000040000C00FB617EE12BF739580FF0BC00894A3
:10001400809B88944795783019F4112719BF826022
:100024000FBE1895713011F49198FACF7A3029F4F3
:10003400919A112719BF8160F3CF40FD919A40FF37
:1000440091984695EDCF81E012E013BF899A889884
:1000540008958827772712E019BF80FFFECF0895FF
:10006400809BFECF8099FECF13EE12BF12E018BF23
:1000740019BF772781FFFECF8D7F08952FEF2A9533
:10008400F1F71A95D9F70895332718E0F0E0331FF4
:1000940010F4C69A01C0C698FF0FB599F160C79ACB
:1000A40026E02A95F1F7C79823E02A95F1F71A95E7
:1000B40071F73F2F089500001FED17BBC798C49A2E
:1000C4001FEFDCDFC4981FEFD9DF3CEADEDF33E546
:1000D400DCDF0032B8F00023AAF0A0E2D5DF33352C
:1000E40099F030E0D2DFC79A26E02A95F1F7C79855
:1000F40023E02A95F1F73CEAC8DF33E5C6DFAA9589
:1001040069F702C030E0C1DF30E0BFDF10E1B6DFE5
:10011400089541E49EDF46E59CDF42E59ADF40E234
:1001240098DF49E496DF43E594DF40E592DF0895E4
:1001340011271BBF1FEF12BBC49A18BB10E117BBDA
:1001440082DF78948DDF4B31E9F3443519F488DF8D
:10015400042F46C1433511F4DCDFF4CF463529F4CE
:1001640042E377DF43E375DFEDCF463729F441E619
:1001740070DF40E66EDFE6CF443739F545E569DFE9
:1001840046E567DF43E165DF40E263DF48E261DFC4
:1001940048E35FDF48E45DDF4CE45BDF44E359DFC1
:1001A40040E357DF4CE655DF48E653DF45E651DFD1
:1001B40040E64FDF44E64DDF42E74BDF41E449DFF1
:1001C40042E447DF40E045DFBDCF403719F443E563
:1001D40040DFB8CF413619F449E53BDFB3CF4837A8
:1001E40009F4FEC0493709F4FBC0053519F1063599
:1001F40009F10331F9F00032E9F00832D9F008339B
:10020400C9F00834B9F00C34A9F0043399F0003380
:1002140089F00C3679F0083669F0053659F0003665
:1002240049F0043639F0023729F0023419F0013468
:1002340009F0D3C0403511F43EDFD2C0433471F429
:100244000FDF38E422DF362F20DF352F1EDF342F77
:100254001CDF11E02227510F621F0BC04336B9F493
:10026400FFDE30E412DF362F10DF352F0EDF342FA0
:100274000CDF013459F0053649F0023439F0003608
:1002840029F0043619F0023710E2F8DEA9C042352D
:1002940099F438E2FADE362FF8DE352FF6DEF4DE96
:1002A400432FD7DE30E2F1DE362FEFDE352FEDDEE1
:1002B400EBDE432FCEDE24C0413429F4D1DE642F9B
:1002C400CFDE542F8DC0443481F4CADE30ECDDDE41
:1002D400362FDBDE352FD9DE342FD7DE10E2CEDE2B
:1002E40011E02227510F621F7BC0443671F430EABB
:1002F400CCDE362FCADE352FC8DEC6DE432FA9DE9C
:1003040011E02227510F621F1DCF4C3421F410E15C
:1003140017BBC49A65C0453659F43CEAB6DE30E8EA
:10032400B4DE34E0B2DE30E0B0DE10E3A7DE58C065
:100334004C3671F495DE3CEAA8DE342F3670306E0C
:10034400A4DE30E0A2DE30E0A0DE10E397DE48C099
:10035400433789F4B2E005D0B1E003D0B0E001D076
:10036400F1CE30E392DE30E090DE3B2F8EDE8CDE89
:10037400432F6FDE08954D3659F43CE486DE362F64
:1003840084DE352F82DE30E080DE1FEF77DE28C08A
:100394004A3359F465DEC42F63DED42F61DEE42FC3
:1003A400442710D01FEF6ADE1BC04E32B1F458DE72
:1003B400C42F56DED42F54DEE42F52DE03D01FEFB9
:1003C4005DDE0EC03C2F61DE3D2F5FDE3E2F5DDE25
:1003D400342F5BDE4F2F3DDE08954FE33ADEB2CE7D
:1003E4004DE037DEAFCE0000133029F000000000EE
:0803F4001A951330E9F7089592
:00000001FF
