:1006E6005265616C2054696D6520436C6F636B00C5
:1006F60042792041414D4552204D554D54415A00B5
:100706005341540053554E004D4F4E00545545002D
:1007160057454400544855004652490020200020C1
:100726004A414E2000204645422000204D4152209D
:1007360000204150522000204D41592000204A55AA
:100746004E2000204A554C200020415547200020CD
:100756005345502000204F43542000204E4F562032
:1007660000204445432000204552522000323000EC
:0C0776003A0020504D0020414D002000B2
:10001E00C2A4120A0412081320B156120A0430B1F7
:10002E00FD7FF07EFF1209C2120A34E4FD7F8E12AC
:10003E0008C07DA57F901208C0E4FD7F801208C025
:10004E00E4FD7F821208C0E4FD7F841208C07D01AA
:10005E007F861208C07D017F881208C07D017F8ACD
:10006E001208C0E4FD7F8C1208C07D807F8E1208BE
:10007E00C07B007A00790C120782E50C6517600CC4
:10008E00850C177B007A00790C12034B30A5030206
:10009E00015130A5FD120A1E120A1EE5097010D27A
:1000AE0000C2067F0E120003E4FD7F8E1208C0050B
:1000BE0009E50964076003020151C200F509E51064
:1000CE0012089A00EF0200E40400E40600E40900BE
:1000DE00E4110000012AE50F64317040750F0180B4
:1000EE003BE51254F0F518E512540FF519E518C456
:1000FE00540FF51875F00AA4F5182519F5185403C0
:10010E00F519600AE50FD394284003750F01E51920
:10011E00700AE50FD394294003750F01AD0F7F864A
:10012E001208C0AB12AD10AF0F1206427B007A0060
:10013E00790C12034B7D807F8E1208C0C2067F0C95
:10014E0012000320004020A63D120A34E4FDFF12E7
:10015E0009047BFF7A0679E612099A7D01E4FF1203
:10016E0009047BFF7A0679F612099AE4F518E51868
:10017E00C39464500B7F007EFF1209C2051880EEF7
:10018E0030A6FD120A34200003020026E5091208EB
:10019E009A01B50101DE0202100302420402740547
:1001AE0002A606000000267D017F0B12090430A670
:1001BE0003020026120A1EAF0C12096F8F0CE50CFB
:1001CE00B46003E4F50CAD0C7F801208C00200266B
:1001DE007D017F0812090430A603020026120A1EB2
:1001EE00AF0D12096F8F0DE50DB46003E4F50DAD83
:1001FE000D7F821208C07B007A00790C12034B022D
:10020E0000267D017F0612090430A6030200261285
:10021E000A1EAF0E12096F8F0EE50EB42403E4F51D
:10022E000EAD0E7F841208C07B007A00790C12038B
:10023E004B020026E4FD7F0C12090430A6030200D7
:10024E0026120A1EAF1212096F8F12E512B499030D
:10025E00E4F512AD127F8C1208C07B007A00790C87
:10026E0012034B020026E4FD7F0812090430A60398
:10027E00020026120A1EAF1012096F8F10E510B47D
:10028E001303751001AD107F881208C07B007A0031
:10029E00790C12034B020026E4FD7F05120904308F
:1002AE00A603020026120A1EAF0F12096F8F0FE56A
:1002BE001012089A02EA0103000202EA0302F50490
:1002CE0002EA0502F50602EA0702EA0802F5090249
:1002DE00EA1002F51102EA1200000337E50F64324C
:1002EE007047750F018042E50F6431703C750F0148
:1002FE008037E51254F0F518E512540FF519E5188C
:10030E00C4540FF51875F00AA4F5182519F51854EC
:10031E0003F5196008E50FB42903750F01E519708F
:10032E0008E50FB43003750F01AD0F7F861208C0BC
:0D033E007B007A00790C12034B020026228E
:100A0400758911C28DC28C7517FFE4F509F50AC208
:0A0A140000D2AFD2ABD2A8C202227A
:1009C2008E298F2A632AFF6329FFE52A152A7002DE
:1009D2001529852A8AE529F58CD28C308DFDC28CA9
:0309E200C28D22A1
:100813007FFE7EFF1209C2C2067F301200037F00F3
:100823007E301209C2C2067F301200037F2C7E0184
:100833001209C2C2067F301200037F2C7E01120907
:10084300C2C2067F38120003C2067F10120003C221
:10085300067F011200037F007E301209C2C2067FA9
:0C08630006120003C2067F0C12000322E4
:100003008F28D2A1852880A20692A07F907E01121C
:0800130009C2C2A11209C222B8
:040904008F258D2688
:10090800E5257009E5267005752702800F75278093
:10091800E5254227E526B40103432740C206AF2751
:10092800120003E525700AE5267006FF7E301209DD
:01093800C2FC
:01093900229B
:10099A008B258A268927AB25AA26A92712086F60E4
:1009AA001612086FFFD20612000374012527F527D5
:0809BA00E43526F52680DF225A
:0F0A3400C2067F011200037F007E301209C2222A
:0408C0008F298D2AC5
:1008C400C2A2D2A4752C0185292EE4F52BE52BC3F5
:1008D40094105025C2A3E52E552CF52D6002D2A309
:1008E400D2A2E52C25E0F52CE52BB40706852A2EAB
:0F08F400752C01C2A2052B80D4C2A4D2A2D2A31C
:0109030022D1
:060782008B218A2289236D
:10078800D2A47525BF752601E4F524E524C3940891
:10079800501AC2A3E5255526F5276002D2A3D2A296
:1007A800E52625E0F526C2A2052480DFE4F524E548
:1007B80024C394085047E4F525F528E528C3940890
:1007C800502430A3057527018003E4F527D2A2AF92
:1007D80028E527A807088002C333D8FCF527422557
:1007E800C2A2052880D5AB210523E523AA227002E1
:1007F800052214F9E525120888052480B27D807F3A
:0A0808008E1208C0C2A4D2A2D2A32F
:0108120022C3
:06034B008B218A228923A8
:10035100C205E4FDFF12090474052523F523E435E4
:1003610022F522AB21FAA92312086FF52412089A6B
:10037100038A0103950203A00303AB0403B605033B
:10038100C10603CC07000003D57BFF7A077906126B
:10039100099A80407BFF7A07790A12099A80357B96
:1003A100FF7A07790E12099A802A7BFF7A07791260
:1003B10012099A801F7BFF7A07791612099A801415
:1003C1007BFF7A07791A12099A80097BFF7A0779EC
:1003D1001E12099A7BFF7A07792212099A74FE2567
:1003E10023F52374FF3522F522AB21FAA923120844
:1003F1006FF5247B007A007914FF12093A7B007AA9
:1004010000791412099A74012523F523E43522F5A4
:1004110022AB21FAA92312086FF52412089A044786
:1004210001045302045E03046904047405047F0695
:10043100048A0704950804A00904AB1004B611044A
:10044100C112000004CC7BFF7A07792512099A02B8
:1004510004D57BFF7A07792B12099A80777BFF7A83
:1004610007793112099A806C7BFF7A077937120973
:100471009A80617BFF7A07793D12099A80567BFF4A
:100481007A07794312099A804B7BFF7A07794912DF
:10049100099A80407BFF7A07794F12099A80357B50
:1004A100FF7A07795512099A802A7BFF7A07795BCF
:1004B10012099A801F7BFF7A07796112099A8014C9
:1004C1007BFF7A07796712099A80097BFF7A07799E
:1004D1006D12099A74022523F523E43522F522AB26
:1004E10021FAA92312086FF5247B007A007914FF01
:1004F10012093A7BFF7A07797312099A7B007A0015
:10050100791412099A7D017F0512090474FC2523CF
:10051100F52374FF3522F522AB21FAA92312086FC6
:10052100F5247007752412C203801FE524C39412B9
:100531005002C203E524B41202D203E524D394127B
:10054100400874EE2524F524D203E524B40E037586
:100551002408E524B40F037524097B007A0079147B
:10056100AF2412093A7B007A00791412099AE52422
:10057100C394105002D2057BFF7A07797612099A4B
:1005810074FF2523F52374FF3522F522AB21FAA947
:100591002312086FF5247B007A007914FF12093ABF
:1005A1007B007A00791412099A7BFF7A0779761217
:1005B100099A74FF2523F52374FF3522F522AB2117
:1005C100FAA92312086FF5247B007A007914FF122F
:1005D100093A7B007A00791412099A30030B7BFFE8
:1005E1007A07797812099A80097BFF7A07797C1258
:1005F100099A3005107D017F051209047BFF7A07F6
:10060100798012099A74012523F523E43522F52214
:10061100AB21FAA92312086FF5247024200221D2FC
:1006210002042523F523E43522F522FAA923120831
:100631006FFF1209E58F0BE4F508F58BF58DD28E6E
:010641002296
:08093A008F258B268A278928EE
:10094200E52554F0F529C4540FF5292430120888FE
:1009520074012528F528E43527F527E525540FF5F8
:0C096200292430AB26AA27A928120888F7
:01096E002266
:02096F008F21D6
:10097100E521540FF523E521C4540FF5220523E5A4
:1009810023D3940940050522E4F523E522C454F05C
:08099100F522E5234222AF220A
:01099900223B
:100A1E00E4F518E518C39405500B7FF07EFF12091C
:060A2E00C2051880EE2253
:060642008F218D228B23A5
:10064800AF231209E58F23AF211209E58F21E52297
:1006580012089A068301068802068803068D040696
:100668009205069706068D07069C0806A1090683CB
:100678001006881106A112000006A4E4F524801CC7
:1006880075240380177524068012752401800D7562
:10069800240480087524028003752405E522D39478
:1006A800024013E5236005D39403400AE52354036D
:1006B800F52570020524E52425232521F524E523C5
:1006C80070021524E524D394064009E52475F00743
:0D06D8008485F0240524AD247F8A1208C01B
:0106E50022F2
:0209E5008F265B
:1009E700E52654F0F518C4540FF51875F00AA4F568
:0C09F70018E526540FF5192518F527FF08
:010A030022D0
:03001B00020A4F87
:010A4F003274
:03000000020A43AE
:0C0A4300787FE4F6D8FD75812E02001EBD
:10086F00BB010689828A83E0225002E722BBFE0287
:09087F00E32289828A83E49322BA
:10088800BB010689828A83F0225002F722BBFE014F
:02089800F32249
:10089A00D083D082F8E4937012740193700DA3A3ED
:1008AA0093F8740193F5828883E473740293686001
:0608BA00EFA3A3A380DF01
:00000001FF
