:100000000C942A040C9445040C9445040C94450467
:100010000C9445040C9445040C9445040C9445043C
:100020000C9445040C9445040C9445040C9445042C
:100030000C9445040C9445040C9445040C9445041C
:100040000C9445040C9445040C9445040C9445040C
:100050000C944504FF01010101E12121212121210D
:100060002121212121212121212121212121212180
:1000700021212121212121212121E1010101010150
:100080000101010101010101010101010101010160
:1000900001010101010101010101C1E13119193120
:1000A000E1C10101F9F901010101F9F90101F9F9D0
:1000B00019191939F1E101010101010101010101E0
:1000C0000101010101010101010101010101010120
:1000D000010101FFFF00000000FF0000001100000F
:1000E0000011000000110000000055000000110088
:1000F00000001100000011000000FF0000000000DF
:1001000000000000000000000000000000000000EF
:10011000000000000000000000007F7F0C0C0C0CB1
:100120007F7F00000F1F306060301F0F00007F7F57
:100130000606060F7B7100000000000000000000B2
:1001400000000000000000000000000000000000AF
:10015000000000FFFF00000000FF00080049000849
:10016000004900080049000800085D08000841082F
:1001700000084108000841080008FF0000000000D6
:1001800000000000FCFE02FEFC009CBE22EECC0043
:10019000FCFE020E0C000002FEFE0200FEFE00004D
:1001A0000000FEFE00000000FCFE02FEFC009CBE03
:1001B00022EECC00FCFE020E0C00FCFE02FEFC0057
:1001C000FEFE223E1C00FEFE222222000000000055
:1001D000000000FFFF00000000FF000000440000DE
:1001E00000440000004400000000550000004400EE
:1001F00000004400000044000000FF000000000078
:100200000000000001030203C120010302038180FA
:100210008103020321C00002030302000303024220
:10022000222023C302C22220A1C302C32120A1C3D2
:1002300002232120A16302030100010302E3212024
:1002400023C30080000083030202020000000000BC
:10025000000000FFFF000000000302020202828291
:10026000820202828282828202828382820202026D
:1002700082828202020282828202030080808000E7
:1002800000808080800000008788800000078888C8
:100290008805000008070000008000000080000CB6
:1002A0008A89890800078A89880700078A89880758
:1002B00000008E818000008000000000000F89890E
:1002C00089060013948C87000000000000000000E5
:1002D000000000FFFF0000000000000000132424C5
:1002E0002419003F24242420003F04040C33003F41
:1002F0000808083F0013242424190000203F200090
:10030000003F2020201F0000203F20000013242455
:100310002419000000000000000F1020100F003F03
:100320000808083F00132424241900132424241946
:100330000000203F2000003F202020200000203F20
:1003400020000013242424190000000000000000F5
:10035000000000FFFF00000000000000000000009F
:1003600000000000000000000000000000FC242449
:100370002404000000F400000010E010102000F041
:10038000106010E000F080C080F00080505050E01D
:100390000010E010102000E0505050200000B0B0DD
:1003A0000000000000000000000008FC0000000049
:1003B0008080000000F8442414F8000000000000D1
:1003C000000000000000000000000000000000002D
:1003D000000000FFFF80808080808080808080809F
:1003E000808080808080808080808080808180800C
:1003F00080808080808181808081818180808081F7
:1004000080808081808081808180808081818181E5
:1004100080818181808080808181818080808181D4
:1004200080808080808080808080818181808080C9
:1004300081818080808081818180808080808080B7
:1004400080808080808080808080808080808080AC
:10045000808080FFFF010101010101010103010111
:10046000010101010101010301010101010101017A
:100470000103010101010101010101030101010168
:100480000101010101AB01010101010101010103B0
:10049000010101010101010101030101010101014A
:1004A0000101010301010101010101010103010138
:1004B0000101010101010101FF0000000000E05005
:1004C0004850E000F8000000F800F848C848300044
:1004D00000000000FF000000000000000008000015
:1004E0000000000000000008000000000000000004
:1004F00000080000000000000000000800000000EC
:100500000000000008AA0800000000000000000829
:1005100000000000000000000008000000000000D3
:1005200000000008000000000000000000080000BB
:100530000000000000000008FF0000C02020230091
:10054000C020232000C12221C000E32020C102E0FE
:1005500020202000FF00000000000000002000001C
:10056000000000000000002000000000000000006B
:10057000002000000000000000000020000000003B
:100580000000000020AA2000000000000000002061
:10059000000000000000000000200000000000003B
:1005A000000000200000000000000000002000000B
:1005B0000000000000000020FF00004849494640BC
:1005C000474848484047484847404F414140404FCE
:1005D00049490900FF8000800080008000C0008041
:1005E00000800080008000C00080008000800080CB
:1005F00000C0008000800080008000C0008000807B
:100600000080008080EA808000800080008000C040
:10061000008000800080008000C00080008000809A
:10062000008000C0008000800080008000C000804A
:100630000080008000800080FF000098A4A09884C3
:10064000A498000030484030084830000000000006
:1006500000000000FF00000000000000000100009A
:100660000000000000000001000000000000000089
:100670000001000000000000000000010000000078
:100680000000000000AB00000000000000000001BE
:100690000000000000000000000100000000000059
:1006A0000000000100000000000000000001000048
:1006B0000000000000000000FF00005C5252525297
:1006C000525C0000A1A1A1A1A1A1BD0000E02040B9
:1006D00080000000FF000000000000000002000099
:1006E0000000000000000002000000000000000008
:1006F00000020000000000000000000200000000F6
:100700000000000002AA0200000000000000000239
:1007100000000000000000000002000000000000D7
:1007200000000002000000000000000000020000C5
:100730000000000000000002FF0000C62928E6219A
:10074000292600008C52108C42528C000019A4A45F
:10075000A4A5A519FF00000000000000000800008B
:100760000000000000000008000000000000000081
:100770000008000000000000000000080000000069
:100780000000000008AA08000000000000000008A7
:100790000000000000000000000800000000000051
:1007A0000000000800000000000000000008000039
:1007B0000000000000000008FF000038A5253925D2
:1007C000A5250000314A4A79484A4900006394143B
:1007D000244484F3FF8080808080808080A080809B
:1007E00080808080808080A08080808080808080E9
:1007F00080A0808080808080808080A080808080B9
:1008000080808080A0AAA08080808080808080A05E
:10081000808080808080808080A0808080808080B8
:10082000808080A0808080808080808080A0808088
:100830008080808080808080FF00006394846714C3
:100840009463000011111111110A0400003C425A76
:10085000525A423C11241FBECFE5D8E0DEBFCDBFC7
:1008600010E0A0E6B0E0E4E1FEE002C005900D92E9
:10087000A436B107D9F714E0A4E6B0E001C01D9298
:10088000AF3FB107E1F70C949C050C940000615058
:10089000710981099109D8F70895C29A6AE070E058
:1008A00080E090E00E944704C2986AE070E080E037
:1008B00090E00E9447040895CF93DF9310927C004C
:1008C00010927B0010927A0010927900C4E5D4E077
:1008D00060E070E04FEF53E0DB01A150BF4FFE013D
:1008E00021969B012F5F3F4FB90184918C9341501A
:1008F000504057FFF1CF30937C0020937B00DF9175
:10090000CF910895CF93DF9310927C0010927B00DB
:1009100010927A0010927900C4E5D0E060E070E0B7
:100920004FEF53E0DB01A150BF4FFE0121969B0129
:100930002F5F3F4FB90184918C934150504057FF36
:10094000F1CF30937C0020937B00DF91CF9108950D
:10095000C59AC49AC098C198885482BB0E944D041D
:1009600080E482BB0E944D04C09A0895EFE7F0E056
:10097000E80FF11D60830895C59AC4980895C49A3C
:10098000C598089510927C0010927B0080917D00A4
:10099000883011F410927D0080917E00803879F4C7
:1009A00010927E0080917D008F5F80937D00883063
:1009B00011F410927D0080917D000E94A804809126
:1009C0007E00803410F40E94BC0480917E0080344C
:1009D00011F40E94BF046AE070E080E090E00E94A1
:1009E0004704C09AC198E0917B00F0917C00E150EF
:1009F000FF4F808182BB0E944D0480917E008F5FFB
:100A000080937E0080917B0090917C000196909372
:100A10007C0080937B008050944008F4B7CF089509
:100A200010BA8FEF81BB18BA87BBC39AC59AC49A14
:100A3000C098C19860E177E280E090E00E944704AE
:100A400080EC82BB0E944D0460E177E280E090E0A0
:100A50000E94470480E482BB0E944D0460E177E27B
:100A600080E090E00E94470488EB82BB0E944D0426
:100A700060E177E280E090E00E9447048FE382BB70
:100A80000E944D04C598C4980E945C040E94C20450
:100A9000089590E060E824EE33E09436C8F4492FDE
:100AA0005527FA01E158FF4F8081883020F0205807
:100AB00030408850FACF241B350BF901882319F0F8
:100AC00066958150FBCFE150FF4F8081862B80835C
:100AD0009F5F97FFDFCF30937C0020937B000895CA
:100AE000CF93DF93CDB7DEB721970FB6F894DEBF73
:100AF0000FBECDBF11BAC19AC0980E944D0480B3F9
:100B0000898389818823CCF38FEF81BBC198C09AF8
:100B100021960FB6F894DEBF0FBECDBFDF91CF9107
:100B2000089580E687B984EC86B90895615071090B
:100B300081099109D8F70895CFE5D8E0DEBFCDBF90
:100B400014BA8FEF85BB1ABA0E9410050E94910556
:100B50000E9482040E94C20460E876E988E990E07D
:100B60000E94960580916B00882309F049C09999ED
:100B700016C0809162009091630023E0893E920745
:100B800070F4009719F484E390E002C08F569F4FF1
:100B9000909363008093620081E080936B009C9946
:100BA00018C080916200909163008433910588F0B1
:100BB0008239910528F4109263001092620006C0F9
:100BC00081599040909363008093620081E080930C
:100BD0006B00989907C0809165008D331CF48F5F7E
:100BE000809365009B9907C080916500843C1CF050
:100BF0008150809365009A9908C09A9BFECF05C0EA
:100C000083B38F3F11F410926B0010927400109216
:100C1000730010926C0010926A008FEF8093600056
:100C200013E6369A349BFECF84B185B1C82FDD27F9
:100C30008091620090916300AA27BB27BC01CD017F
:100C40000E94960580916A0099278C179D0710F4E1
:100C5000C0936A00809160009927C817D90710F4E3
:100C6000C0936000209749F0CE01059665E070E0E2
:100C70000E94F606EB01229602C0C2E0D0E060912D
:100C800065006C0F6B5F60936400603408F060E097
:100C9000812F0E94B604115021F680916A002091A4
:100CA0006000821751F09927821B910997FD0196E8
:100CB00095958795280F209361000E945C040E94FF
:100CC00049050E94C2041092740010927300A1E0C2
:100CD00080916100E82FFF2770916A00C09369003E
:100CE000369A349BFECF84B185B1C82FDD27309171
:100CF0006900832F99278C179D0789F480917300D1
:100D00009091740001969093740080937300845FB7
:100D1000914018F0A093680002C0109268002091E2
:100D20006800222369F4CE17DF0709F057C0832F2C
:100D300099278C179D0708F051C02093670050C079
:100D4000213009F04BC08091690099278C179D07CD
:100D5000E1F5809160007817C1F110927400109253
:100D6000730040E050E060916100369A349BFECF02
:100D700084B185B1C82FDD27CA010196AC01262FA9
:100D800033272C173D0718F4885E934070F31092B8
:100D90006700109274001092730040E050E0369AA1
:100DA000349BFECF84B185B1C82FDD27CA010196DF
:100DB000AC01C217D30720F463E0883E960778F3AE
:100DC000909374008093730006C080916900992706
:100DD0008C179D0719F41092670002C0A09367005A
:100DE00080916700813009F479CFBCCEAA1BBB1B70
:100DF00051E107C0AA1FBB1FA617B70710F0A61B1B
:100E0000B70B881F991F5A95A9F780959095BC013B
:040E1000CD01089573
:040E1400FF023400A5
:00000001FF
